:100000005FC0F4C178C077C076C075C074C073C0DB
:1000100072C071C070C06FC06EC06DC06CC06BC06C
:100020006AC069C068C067C066C065C064C063C09C
:1000300062C061C0040309042203770077007700DF
:100040002E00720065006300750072007300690085
:100050006F006E002E006A00700010035500530000
:1000600042002D0032003300320012011001020064
:100070000008C016E1050001010200010902430069
:10008000020100803209040000010202010005247F
:1000900000100104240202052406000105240103C6
:1000A00001070583030800FF09040100020A00009C
:1000B0000007050102080000070581020800000092
:1000C00011241FBECFEFD4E0DEBFCDBF11E0A0E012
:1000D000B1E0E8E4FAE002C005900D92AC30B1075F
:1000E000D9F712E0ACE0B1E001C01D92A43EB10727
:1000F000E1F7F0D3A7C484CFE9E6F0E08081826025
:100100008083E89A8BE48093210180934C018AE5F7
:100110008093200180934B0108951F93CF93DF9329
:10012000DC01162FEA01888184FF05C0898198E8E7
:100130008927898302C08AE58883AE014E5F5F4FBD
:10014000212FFA018D91819321501216DCF3CA01FF
:10015000612F48D11C5F1883DF91CF911F910895C3
:100160004BE451E0DADF089540E251E0D6DF089534
:100170001F93CF93DF9360913101635067FDB3C04C
:1001800080912E01CCE0D0E0C81BD109CB5CDE4FC2
:1001900080912D01803118F4CE0180D39EC08D3224
:1001A00009F08BC0683009F098C083EC809315018A
:1001B0008AE58093000110920C018881807621F0FD
:1001C000CE012CD3282F66C09A8110921E018981FE
:1001D000882321F410921F0122E055C0853019F4C4
:1001E000909332014FC08630B9F58B81813041F454
:1001F0008AE690E09093300180932F0122E128C09D
:10020000823021F4CE01F5D2282F22C08330F9F4B8
:100210008A81882341F484E390E0909330018093B5
:100220002F0124E015C0813041F488E390E09093E1
:10023000300180932F0122E20BC0823041F48AE525
:1002400090E09093300180932F0120E101C020E0E5
:1002500080E480930C011EC0883021F421E084E307
:1002600091E013C0893019F4909334010BC08A30A7
:1002700011F421E008C08B3029F48BE48093210134
:1002800080934C0120E08EE191E0909330018093C7
:100290002F0109C02F3F39F4888187FD2E8180E826
:1002A00080930C0106C08F81882319F48E818217F8
:1002B00008F0822F8093010110C080910C0187FF0C
:1002C0000CC0CE0166D38F3F21F48EE180930001F4
:1002D00004C0882311F01092010180913101181699
:1002E00014F4109231018091000184FF58C0809174
:1002F00001018F3F09F453C0182F893008F018E02E
:10030000811B809301018091150198E889278093D2
:100310001501112391F180910C0187FF08C086E13E
:1003200091E0612FA3D2182F893098F526C0209133
:100330002F013091300186FF0DC0A6E1B1E080E0D1
:1003400090E0F901E80FF91FE491ED930196181779
:10035000C1F708C0912FD901E6E1F1E08D918193B9
:100360009150E1F71150812F90E01F5F0196820FAD
:10037000931F9093300180932F0186E191E0612FCC
:1003800031D0612F6C5F6C3041F08FEF80930101B1
:1003900004C08FEF809301016EE16093000194E14E
:1003A00089B1847131F49150D9F7109232011092D1
:1003B0002C01DF91CF911F910895A82FB92F80E0D4
:1003C00090E041E050EA609530E009C02D9182272D
:1003D0009795879510F084279527305EC8F36F5F57
:1003E000A8F30895EADF8D939D930895CF93CFB737
:1003F000CF93DF93C3954C9BE9F74C9B0BC04C9B71
:1004000009C04C9B07C04C9B05C04C9B03C04C9B38
:1004100001C08EC06F93C0912E01DD27CB5CDE4FF3
:100420002F9365E54C9B03C02F916F91E6CF0F93FF
:100430001F934F9320E040E15F9309B1047104FBE7
:1004400027F93F9350E03BE039C0147140642F77A7
:10045000012F5F5F1EC0406819B114712F77525091
:100460001FC0406409B12F770471D1F15F5F00C0F4
:1004700023C0406219B12F77147191F15F5F00C002
:1004800025C004711027515012F45D5F0000115017
:1004900027952C3F19B1C8F61471012701502795F3
:1004A0002C3FC8F64227499309B1047110274F73B6
:1004B000115027952C3FA8F64695469519B1147111
:1004C00079F00127015027952C3F98F66B5A60F37D
:1004D000315009B1B0F600C011E01CBB00271CC0B0
:1004E0003B503195C31BD04011E01CBB0881033C3D
:1004F00021F10B3411F120912C011981110F1213EC
:10050000EDCF4A81441F093669F10D3211F0013EE9
:1005100029F74F7009F0042F009333013F915F9149
:100520004F911F910F912F916F91CCB3C0FD62CF6E
:10053000DF91CF91CFBFCF91189520913301222326
:1005400069F3109131011123E9F53430EAF1309368
:10055000310120932D0110912E013BE0311B30938E
:100560002E0132C000913101013064F50AE54F706F
:1005700049F43091000134FD28C000930001C5E129
:10058000D1E027C0433049F03091200134FD1DC037
:1005900000932001C1E2D1E01CC030914B0134FD39
:1005A00014C000934B01CCE4D1E013C0052710E048
:1005B00000C000000BB91AC0052710E0221F1DC0A3
:1005C00010E021C04AE502C032ED432FC4E1D0E083
:1005D00032E01AB114615C9A0BB11AB954E120E807
:1005E00065E320FF05270BB9279517951C3FF0F60B
:1005F0006695B8F7B1F720FF05270BB92795179532
:100600001C3FD0F62795179517FF052700001C3FC4
:100610000BB9B0F629913A9519F70B7E109132017A
:10062000110FC651D0400BB911F010932C0111E0FD
:100630001CBB00611AB11B7E402F4B7E54E05A95C3
:10064000F1F70BB91AB94BB969CFBF92CF92DF92CC
:10065000EF92FF920F931F936B017C01B42E122F28
:10066000969587957795679560587B47814E9F4F04
:10067000A7019601C5D121503040404050408091A3
:10068000C00082608093C0001092C10081E0B81663
:1006900011F440E303C04B2D4295407F802F90E042
:1006A0000597880F991F1695110F110F110F182B11
:1006B000412B4093C2002093C4003093C50088E1D1
:1006C0008093C10087B98FEF88B91F910F91FF9078
:1006D000EF90DF90CF90BF9008950F931F933091CC
:1006E000E1029091E20210C0E92FF0E0E052FE4FEB
:1006F00080818093C6009F5F8091310187FF07C092
:10070000293028F010923101292F231B01C02F5FBF
:100710008091C00085FF0BC0391739F43093E20295
:100720009091E002E091DF0117C03599DDCF909301
:10073000E202F6CF391761F08091C0002091C60027
:100740008C7171F4F0E0E95AFE4F2083E32F04C06E
:10075000E093DF0144980AC0EF5F3E2F3F77E150FE
:100760008091C00087FDE6CFE093DF0180912001FA
:1007700084FF3CC06091DF01691721F48091E3029E
:100780008823A1F1162F191B1F77193008F018E0E4
:10079000012F090F07FF10C00F77A7E5B1E0202F49
:1007A00030E02A0F3B1F05C0FD01E058FF4F8D913F
:1007B0008083A217B307C1F7892F90E0895A9E4F13
:1007C000612FD2DC0093E002112361F0449A1830CB
:1007D00049F490E08091DF01801391E081E0982757
:1007E000892F02C080E090E08093E3021F910F9177
:1007F0000895FC018381813049F48AE690E090936A
:10080000300180932F0180916A0008958CE790E079
:100810009093300180932F0183E40895FC0120819F
:10082000822F8076803201F59181892F805282302B
:1008300010F48FEF0895923281F488B19281917013
:10084000990F990F990F877F982B98B980910D0177
:10085000882319F482E080930D0127FD05C081E013
:100860008093E30280E0089580E00895FC01809188
:100870001101808380911201818380911301828311
:1008800080911401838380910E01848380910F01F4
:10089000858380911001868387E00895DC01909123
:1008A000E2020CC02E2F2F5F291739F0F0E0E05242
:1008B000FE4F8D9180832093E1026150E091E1022F
:1008C000662381F791509E1B993018F48FEF809327
:1008D000310108950F932EE088E190E00FB6F8946F
:1008E000A895809360000FBE209360008BEE8BB9BB
:1008F00084E18AB9A89584EC99E020E931E0F90116
:100900003197F1F70197D9F71AB880E895E2A0E09E
:10091000B0E08093110190931201A0931301B09362
:10092000140110920E0110920F0188E080931001C3
:1009300060E875E280E090E040E020E008E085DEDD
:100940001092E2021092DF011092E0021092E10296
:10095000D3DB10920D011092E3027894A89508DC85
:10096000BCDE90910D019923C9F380914B0184FF66
:10097000F5CF923021F482E091E068E003C08AE094
:1009800091E062E0EDDB80910D01815080930D01DB
:10099000E5CF0F93FC0180818093110181818093C9
:1009A00012018281809313018381809314019481C9
:1009B00090930E01858180930F01068100931001B1
:1009C000833010F010920F01913011F410920E014B
:1009D00060911101709112018091130190911401A5
:1009E00040910F0120910E0130DE1092E202109230
:1009F000DF011092E0021092E10281E00F91089570
:100A0000A1E21A2EAA1BBB1BFD010DC0AA1FBB1F12
:100A1000EE1FFF1FA217B307E407F50720F0A21B84
:100A2000B30BE40BF50B661F771F881F991F1A94F1
:100A300069F760957095809590959B01AC01BD011B
:080A4000CF010895F894FFCFE7
:0C0A48005AFFA120000000000200030083
:00000001FF
