:1000000069C0C5C382C0D1C0E1C01AC12AC13AC10A
:100010004AC15AC16AC17AC197C1A7C1B7C1C7C194
:10002000D7C1E7C1F7C107C217C227C237C247C24B
:1000300057C267C20902430002010080FA090400A6
:10004000000102020100052400100104240202053F
:10005000240600010524010301070583030800FFAE
:1000600009040100020A000000070501020800005F
:1000700007058102080000040309043403770077B0
:100080000077002E0063006C00750062006400655C
:100090000072006F0062006F00740069006300610D
:1000A000002E0063006F006D002E006100720012D0
:1000B0000349002F004F002D0052006100630065CE
:1000C000001201100102000008C016E10500010144
:1000D0000200010011241FBECFEFD4E0DEBFCDBF70
:1000E00011E0A0E0B1E0E8EAFCE002C005900D926A
:1000F000AC30B107D9F712E0ACE0B1E001C01D921D
:10010000AF35B107E1F70ED2CDC57ACFFC018381BF
:10011000813049F481EC90E090933802809337026B
:100120008091C100089584E390E090933802809319
:10013000370283E40895FC012081822F807680328B
:10014000B9F49181892F8052823010F48FEF089595
:10015000923239F480911401882319F482E080935B
:10016000140127FD05C081E08093130180E008950C
:1001700080E00895DC018FEF8093390290911601A1
:1001800021E28D91883551F0883741F08A3031F085
:10019000E92FF0E0E85EFE4F20839F5F615089F712
:1001A000909316011092390208951F920F920FB684
:1001B0000F9211248F93809118028061809318020E
:1001C0008F910F900FBE0F901F9018951F920F9256
:1001D0000FB60F9211248F939F93EF93FF9380910B
:1001E00068008D7F809368008FEF8093390280E4F0
:1001F0009FE10197F1F7359B13C090911601E92F0C
:10020000F0E0E85EFE4F8CE480839F5F90931601E0
:1002100010928500109284008DE08093810005C0CB
:100220008091680082608093680010923902FF918B
:10023000EF919F918F910F900FBE0F901F90189587
:100240001F920F920FB60F9211248F938091180274
:100250008064809318028F910F900FBE0F901F90B3
:1002600018951F920F920FB60F9211248F938091C1
:1002700018028068809318028F910F900FBE0F9024
:100280001F9018951F920F920FB60F9211248F9303
:10029000809119028160809319028F910F900FBE97
:1002A0000F901F9018951F920F920FB60F92112466
:1002B0008F93809119028260809319028F910F9021
:1002C0000FBE0F901F9018951F920F920FB60F92AE
:1002D00011248F93809119028460809319028F9169
:1002E0000F900FBE0F901F9018951F920F920FB690
:1002F0000F9211248F9380911902886080931902C4
:100300008F910F900FBE0F901F9018951F920F9214
:100310000FB60F9211248F93EF93FF938FEF80937B
:100320003902D99AE8E6F0E080818260808388E033
:100330008093810010923902FF91EF918F910F907D
:100340000FBE0F901F9018951F920F920FB60F922D
:1003500011248F93809119028062809319028F91EA
:100360000F900FBE0F901F9018951F920F920FB60F
:100370000F9211248F938091190280648093190247
:100380008F910F900FBE0F901F9018951F920F9294
:100390000FB60F9211248F93809119028068809379
:1003A00019028F910F900FBE0F901F9018951F92FA
:1003B0000F920FB60F9211248F9380911A028160D1
:1003C00080931A028F910F900FBE0F901F90189577
:1003D0001F920F920FB60F9211248F9380911A02E1
:1003E000826080931A028F910F900FBE0F901F9022
:1003F00018951F920F920FB60F9211248F93809130
:100400001A02846080931A028F910F900FBE0F9092
:100410001F9018951F920F920FB60F9211248F9371
:1004200080911A02886080931A028F910F900FBEFC
:100430000F901F9018951F920F920FB60F921124D4
:100440008F9380911A02806180931A028F910F908E
:100450000FBE0F901F9018951F920F920FB60F921C
:1004600011248F9380911A02806280931A028F91D7
:100470000F900FBE0F901F9018951F920F920FB6FE
:100480000F9211248F9380911A02806480931A0234
:100490008F910F900FBE0F901F9018951F920F9283
:1004A0000FB60F9211248F9380911A028068809367
:1004B0001A028F910F900FBE0F901F9018951F92E8
:1004C0000F920FB60F9211248F9380911B028160BF
:1004D00080931B028F910F900FBE0F901F90189565
:1004E0001F920F920FB60F9211248F9380911B02CF
:1004F000826080931B028F910F900FBE0F901F9010
:1005000018951F920F920FB60F9211248F9380911E
:100510001B02846080931B028F910F900FBE0F907F
:100520001F901895EF92FF920F931F93CF93DF9335
:100530002EE088E190E00FB6F894A89580936000D3
:100540000FBE209360008BEE8BB95F9884E98AB967
:1005500020E040E65AEEA895CA010197F1F72F5F17
:100560002431C9F780E88AB9559A84B5836384BD7C
:1005700085B58A6085BD84E387BD8AE188BD87B182
:1005800087B98091680082608093680080916C00D8
:10059000806280936C0080918000809380008091C5
:1005A000810088608093810080916F0082608093D9
:1005B0006F0080E49CE9909389008093880016D2B4
:1005C000109214011092130110921501109216014D
:1005D000109217017894EE24E394C1E0D0E08CE50A
:1005E000F82E0AE0A8953ED28091280284FF2FC001
:1005F0002091160190911701291729F48091130178
:10060000882319F424C0291718F0622F691B02C02F
:10061000692F6195162F693008F018E0892F90E056
:10062000885E9E4F612F1AD220911701210F2093CF
:100630001701183019F080E090E007C090E0809139
:100640001601821391E09E25892F8093130144E0C7
:10065000842F869586958695E82FF0E0E85EFD4F1D
:100660005081552331F4482F440F440F440F495F04
:1006700041C0242F30E027703070852F90E0022E8B
:1006800002C0959587950A94E2F780FF33C0CE01AA
:1006900002C0880F991F2A95E2F7809585238083F1
:1006A00080911601E82FF0E0E85EFE4FF0828F5F48
:1006B000942F92959F709A3008F0995FE82FF0E0A0
:1006C000E85EFE4F905D90838F5F942F9F709A300D
:1006D00008F0995FE82FF0E0E85EFE4F905D9083B0
:1006E0008F5FE82FF0E0E85EFE4F00838F5F80931E
:1006F000160104C04F5F4B3108F4AACF909114014A
:10070000992309F46FCF8091530284FF6BCF92300D
:1007100031F480E091E068E09DD15F9805C088E009
:1007200091E062E097D15F9A8091140181508093AB
:10073000140158CFACE0B1E0FC0187E001900D92CC
:100740008150E1F781E00895DC01ECE0F1E087E021
:1007500001900D928150E1F787E00895A82FB92FFD
:1007600080E090E041E050EA60956F5F58F42D9191
:1007700038EF82279795879510F0842795273F5F5C
:10078000C8F3F3CF0895EADF8D939D930895CF9337
:10079000CFB7CF93DF93C3954C9BE9F74C9B0BC02E
:1007A0004C9B09C04C9B07C04C9B05C04C9B03C095
:1007B0004C9B01C08EC06F93C0913602DD27C35C95
:1007C000DD4F2F9365E54C9B03C02F916F91E6CFD2
:1007D0000F931F934F9320E040E15F9309B10471A1
:1007E00004FB27F93F9350E03BE039C014714064AB
:1007F0002F77012F53501EC0406819B114712F7705
:1008000053501FC0406409B12F770471D1F1535088
:10081000000023C0406219B12F77147191F1535039
:10082000000025C004711027515012F45D5F0000D4
:10083000115027952C3F19B1C8F6147101270150AA
:1008400027952C3FC8F64227499309B10471102718
:100850004F73115027952C3FA8F64695469519B130
:10086000147179F00127015027952C3F98F66B5AA7
:1008700060F3315009B1B0F600C011E01CBB002795
:100880001CC03B503195C31BD04011E01CBB0881FC
:10089000033C21F10B3411F1209134021981110F25
:1008A0001213EDCF4A81441F093669F10D3211F060
:1008B000013E29F74F7009F0042F00933B023F914E
:1008C0005F914F911F910F912F916F91CCB3C0FD0C
:1008D00062CFDF91CF91CFBFCF91189520913B028E
:1008E000222369F3109139021123E9F53430EAF13A
:1008F0003093390220933502109136023BE0311BD0
:100900003093360232C000913902013064F50AE5B5
:100910004F7049F430910A0134FD28C000930A0158
:10092000CDE1D2E027C0433049F03091280234FDB8
:100930001DC000932802C9E2D2E01CC030915302CE
:1009400034FD14C000935302C4E5D2E013C0052760
:1009500010E000C000000BB91AC0052710E0221FEC
:100960001DC010E021C04AE502C032ED432FC4E1B2
:10097000D0E032E01AB114615C9A0BB11AB954E1BB
:1009800020E865E320FF05270BB9279517951C3F45
:10099000F0F66695B8F7B1F720FF05270BB9279554
:1009A00017951C3FD0F62795179517FF05270000D0
:1009B0001C3F0BB9B0F629913A9519F70B7E1091AF
:1009C0003A02110FC651D0400BB911F01093340206
:1009D00011E01CBB00611AB11B7E402F4B7E54E01E
:1009E0005A95F1F70BB91AB94BB969CFE9E6F0E0BE
:1009F000808182608083E89A8BE4809329028093CF
:100A000054028AE5809328028093530208951F932D
:100A1000CF93DF93DC01162FEA01888184FF05C0A4
:100A2000898198E88927898302C08AE58883AE0195
:100A30004E5F5F4F212FFA018D9181932150121645
:100A4000DCF3CA01612F9FDE1C5F1883DF91CF9119
:100A50001F91089543E552E0DADF089548E252E03D
:100A6000D6DF08951F93CF93DF93609139026350CF
:100A700067FDAEC080913602CCE0D0E0C81BD10942
:100A8000C35CDD4F80913502803118F4CE0172DBFA
:100A900099C08D3209F086C0683009F093C083ECAC
:100AA00080931D028AE580930A0110921C028881BE
:100AB000807621F0CE013FDB282F61C09A81109211
:100AC00026028981882321F41092270222E050C057
:100AD000853019F490933A024AC0863091F58B81A3
:100AE000813019F481EC90E021C0823021F4CE01F4
:100AF0000DDB282F22C08330F9F48A81882341F44A
:100B000087E790E0909338028093370224E015C085
:100B1000813041F48BE790E0909338028093370264
:100B200024E30BC0823041F48FEA90E090933802C6
:100B30008093370222E101C020E080E480931C0210
:100B40001EC0883021F421E08CE392E013C089308C
:100B500019F490933C020BC08A3011F421E008C0D4
:100B60008B3029F48BE4809329028093540220E097
:100B700086E292E0909338028093370209C02F3FBB
:100B800039F4888187FD2E8180E880931C0206C09D
:100B90008F81882319F48E81821708F0822F809329
:100BA0000B0110C080911C0287FF0CC0CE01C2DD7A
:100BB0008F3F21F48EE180930A0104C0882311F055
:100BC00010920B0180913902181614F41092390218
:100BD00080910A0184FF58C080910B018F3F09F476
:100BE00053C0182F893008F018E0811B80930B0147
:100BF00080911D0298E8892780931D02112391F1AD
:100C000080911C0287FF08C08EE192E0612F9CDD7D
:100C1000182F893098F526C020913702309138027C
:100C200086FF0DC0AEE1B2E080E090E0F901E80F90
:100C3000F91FE491ED9301961817C1F708C0912FA1
:100C4000D901EEE1F2E08D9181939150E1F71150DD
:100C5000812F90E01F5F0196820F931F90933802BF
:100C6000809337028EE192E0612F8DDD612F6C5F02
:100C70006C3041F08FEF80930B0104C08FEF8093B5
:100C80000B016EE160930A0194E189B1847131F442
:100C90009150D9F710923A0210923402DF91CF911D
:080CA0001F910895F894FFCFA5
:0C0CA800A12000000000020003005AFF21
:00000001FF
