:1000000069C009C482C0F3C003C13EC14EC15EC114
:100010006EC17EC18EC19EC1BBC1CBC1DBC1EBC174
:10002000FBC10BC21BC22BC23BC24BC25BC26BC229
:100030007BC28BC20902430002010080FA0904005E
:10004000000102020100052400100104240202053F
:10005000240600010524010301070583030800FFAE
:1000600009040100020A000000070501020800005F
:1000700007058102080000040309043403770077B0
:100080000077002E0063006C00750062006400655C
:100090000072006F0062006F00740069006300610D
:1000A000002E0063006F006D002E006100720012D0
:1000B0000349002F004F002D0052006100630065CE
:1000C000001201100102000008C016E10500010144
:1000D0000200010011241FBECFEFD4E0DEBFCDBF70
:1000E00011E0A0E0B1E0E0E3FDE002C005900D9278
:1000F000AC30B107D9F712E0ACE0B1E001C01D921D
:10010000A036B107E1F73DD211C67ACFFC01838159
:10011000813049F481EC90E0909339028093380269
:100120008091C100089584E390E090933902809318
:10013000380283E40895FC012081822F807680328A
:10014000B9F49181892F8052823010F48FEF089595
:10015000923239F480911501882319F482E080935A
:10016000150127FD05C081E08093140180E008950A
:1001700080E00895DC018FEF80933A02909117019F
:1001800041E031E228E08D918435F1F085352CF4A1
:100190008A3031F18434F1F405C0843659F0843763
:1001A000C9F415C0809168008260809368002B9824
:1001B0005B9A16C0809168008D7F809368002093C1
:1001C00081005B982B9A0CC040930C0109C01092DF
:1001D0000C0106C0E92FF0E0E75EFE4F30839F5F21
:1001E000615089F69093170110923A0208951F9278
:1001F0000F920FB60F9211248F9380911902806194
:10020000809319028F910F900FBE0F901F90189539
:100210001F920F920FB60F9211248F939F93EF931B
:10022000FF93809168008D7F809368008FEF8093AB
:100230003A0280E49FE10197F1F7359902C0369BBD
:1002400013C090911701E92FF0E0E75EFE4F8CE4B8
:1002500080839F5F90931701109285001092840015
:100260008DE08093810005C080916800826080935A
:10027000680010923A02FF91EF919F918F910F9039
:100280000FBE0F901F9018951F920F920FB60F92EE
:1002900011248F93809119028064809319028F91A9
:1002A0000F900FBE0F901F9018951F920F920FB6D0
:1002B0000F9211248F938091190280688093190204
:1002C0008F910F900FBE0F901F9018951F920F9255
:1002D0000FB60F9211248F9380911A028160809340
:1002E0001A028F910F900FBE0F901F9018951F92BA
:1002F0000F920FB60F9211248F9380911A02826091
:1003000080931A028F910F900FBE0F901F90189537
:100310001F920F920FB60F9211248F9380911A02A1
:10032000846080931A028F910F900FBE0F901F90E0
:1003300018951F920F920FB60F9211248F938091F0
:100340001A02886080931A028F910F900FBE0F904F
:100350001F9018951F920F920FB60F9211248F9332
:10036000EF93FF938FEF80933A02D99AE8E6F0E09B
:1003700080818260808388E08093810010923A02BD
:10038000FF91EF918F910F900FBE0F901F901895D6
:100390001F920F920FB60F9211248F9380911A0221
:1003A000806280931A028F910F900FBE0F901F9062
:1003B00018951F920F920FB60F9211248F93809170
:1003C0001A02806480931A028F910F900FBE0F90D3
:1003D0001F9018951F920F920FB60F9211248F93B2
:1003E00080911A02806880931A028F910F900FBE3D
:1003F0000F901F9018951F920F920FB60F92112415
:100400008F9380911B02816080931B028F910F90CC
:100410000FBE0F901F9018951F920F920FB60F925C
:1004200011248F9380911B02826080931B028F9115
:100430000F900FBE0F901F9018951F920F920FB63E
:100440000F9211248F9380911B02846080931B0272
:100450008F910F900FBE0F901F9018951F920F92C3
:100460000FB60F9211248F9380911B0288608093A6
:100470001B028F910F900FBE0F901F9018951F9227
:100480000F920FB60F9211248F9380911B028061FF
:1004900080931B028F910F900FBE0F901F901895A5
:1004A0001F920F920FB60F9211248F9380911B020F
:1004B000806280931B028F910F900FBE0F901F9050
:1004C00018951F920F920FB60F9211248F9380915F
:1004D0001B02806480931B028F910F900FBE0F90C0
:1004E0001F9018951F920F920FB60F9211248F93A1
:1004F00080911B02806880931B028F910F900FBE2A
:100500000F901F9018951F920F920FB60F92112403
:100510008F9380911C02816080931C028F910F90B9
:100520000FBE0F901F9018951F920F920FB60F924B
:1005300011248F9380911C02826080931C028F9102
:100540000F900FBE0F901F9018951F920F920FB62D
:100550000F9211248F9380911C02846080931C025F
:100560008F910F900FBE0F901F90189581E0809390
:100570000C015B9B03C05B982B9A08955B9A2B98A8
:100580000895EF92FF920F931F93CF93DF932EE086
:1005900088E190E00FB6F894A895809360000FBEB4
:1005A000209360008BEE8BB95F9884E98AB920E0D4
:1005B00040E65AEEA895CA010197F1F72F5F243162
:1005C000C9F780E88AB9559A84B5836384BD85B537
:1005D0008A6085BD84E387BD8AE188BD239A539AEA
:1005E00087B187B980916C00806380936C008091A3
:1005F00080008093800080918100886080938100DA
:1006000080916F00826080936F0080E49CE99093FA
:100610008900809388005B982DD21092150110926A
:10062000140110921601109217011092180178947B
:10063000EE24E394C1E0D0E00CE55AE0F52EA89555
:1006400055D220918400309185008091880090914E
:100650008900969587952817390731F08091840095
:1006600090918500019709F481DF8091290284FF30
:100670002FC02091170190911801291729F480911A
:100680001401882319F424C0291718F0622F691B5C
:1006900002C0692F6195162F693008F018E0892F84
:1006A00090E0875E9E4F612F1DD220911801210F8F
:1006B00020931801183019F080E090E007C090E016
:1006C00080911701821391E09E25892F8093140158
:1006D00044E0842F869586958695E82FF0E0E75EC6
:1006E000FD4F5081552331F4482F440F440F440FE0
:1006F000495F41C0242F30E027703070852F90E093
:10070000022E02C0959587950A94E2F780FF33C0C8
:10071000CE0102C0880F991F2A95E2F780958523A4
:10072000808380911701E82FF0E0E75EFE4F0083A1
:100730008F5F942F92959F709A3008F0995FE82F01
:10074000F0E0E75EFE4F905D90838F5F942F9F7087
:100750009A3008F0995FE82FF0E0E75EFE4F905D79
:1007600090838F5FE82FF0E0E75EFE4FF0828F5FAF
:100770008093170104C04F5F4B3108F4AACF9091CA
:100780001501992309F45BCF8091540284FF57CF60
:10079000923041F480E091E068E0A0D15F982B981E
:1007A0005B9806C088E091E062E098D15F9A2B9A4E
:1007B0008091150181508093150141CFADE0B1E0EA
:1007C000FC0187E001900D928150E1F781E00895EE
:1007D000DC01EDE0F1E087E001900D928150E1F75E
:1007E00087E00895A82FB92F80E090E041E050EA1B
:1007F00060956F5F58F42D9138EF82279795879514
:1008000010F0842795273F5FC8F3F3CF0895EADF00
:100810008D939D930895CF93CFB7CF93DF93C395D7
:100820004C9BE9F74C9B0BC04C9B09C04C9B07C0F1
:100830004C9B05C04C9B03C04C9B01C08EC06F936A
:10084000C0913702DD27C25CDD4F2F9365E54C9BDD
:1008500003C02F916F91E6CF0F931F934F9320E02A
:1008600040E15F9309B1047104FB27F93F9350E025
:100870003BE039C0147140642F77012F53501EC0E4
:10088000406819B114712F7753501FC0406409B1EB
:100890002F770471D1F15350000023C0406219B189
:1008A0002F77147191F15350000025C00471102767
:1008B000515012F45D5F0000115027952C3F19B183
:1008C000C8F614710127015027952C3FC8F642271E
:1008D000499309B1047110274F73115027952C3F8C
:1008E000A8F64695469519B1147179F00127015083
:1008F00027952C3F98F66B5A60F3315009B1B0F64A
:1009000000C011E01CBB00271CC03B503195C31B2D
:10091000D04011E01CBB0881033C21F10B3411F1E4
:10092000209135021981110F1213EDCF4A81441F16
:10093000093669F10D3211F0013E29F74F7009F0C7
:10094000042F00933C023F915F914F911F910F91B3
:100950002F916F91CCB3C0FD62CFDF91CF91CFBF0C
:10096000CF91189520913C02222369F310913A020D
:100970001123E9F53430EAF130933A02209336023C
:10098000109137023BE0311B3093370232C00091A7
:100990003A02013064F50AE54F7049F430910A01DA
:1009A00034FD28C000930A01CEE1D2E027C04330D5
:1009B00049F03091290234FD1DC000932902CAE29A
:1009C000D2E01CC03091540234FD14C00093540294
:1009D000C5E5D2E013C0052710E000C000000BB948
:1009E0001AC0052710E0221F1DC010E021C04AE5F3
:1009F00002C032ED432FC4E1D0E032E01AB11461FD
:100A00005C9A0BB11AB954E120E865E320FF052791
:100A10000BB9279517951C3FF0F66695B8F7B1F717
:100A200020FF05270BB9279517951C3FD0F6279572
:100A3000179517FF052700001C3F0BB9B0F6299149
:100A40003A9519F70B7E10913B02110FC651D04019
:100A50000BB911F01093350211E01CBB00611AB103
:100A60001B7E402F4B7E54E05A95F1F70BB91AB913
:100A70004BB969CFE9E6F0E0808182608083E89A33
:100A80008BE480932A02809355028AE580932902A1
:100A90008093540208951F93CF93DF93DC01162FA8
:100AA000EA01888184FF05C0898198E889278983C4
:100AB00002C08AE58883AE014E5F5F4F212FFA01A5
:100AC0008D91819321501216DCF3CA01612F9FDEB4
:100AD0001C5F1883DF91CF911F91089544E552E088
:100AE000DADF089549E252E0D6DF08951F93CF93ED
:100AF000DF9360913A02635067FDAEC08091370288
:100B0000CCE0D0E0C81BD109C25CDD4F8091360239
:100B1000803118F4CE012EDB99C08D3209F086C0E9
:100B2000683009F093C083EC80931E028AE58093BD
:100B30000A0110921D028881807621F0CE01FBDA35
:100B4000282F61C09A81109227028981882321F47D
:100B50001092280222E050C0853019F490933B0295
:100B60004AC0863091F58B81813019F481EC90E098
:100B700021C0823021F4CE01C9DA282F22C083306F
:100B8000F9F48A81882341F487E790E09093390251
:100B90008093380224E015C0813041F48BE790E067
:100BA000909339028093380224E30BC0823041F4E1
:100BB0008FEA90E0909339028093380222E101C0DD
:100BC00020E080E480931D021EC0883021F421E0E3
:100BD0008DE392E013C0893019F490933D020BC06D
:100BE0008A3011F421E008C08B3029F48BE4809323
:100BF0002A028093550220E087E292E09093390226
:100C00008093380209C02F3F39F4888187FD2E81F7
:100C100080E880931D0206C08F81882319F48E819D
:100C2000821708F0822F80930B0110C080911D0263
:100C300087FF0CC0CE01C2DD8F3F21F48EE180938F
:100C40000A0104C0882311F010920B0180913A022E
:100C5000181614F410923A0280910A0184FF58C0C9
:100C600080910B018F3F09F453C0182F893008F091
:100C700018E0811B80930B0180911E0298E8892760
:100C800080931E02112391F180911D0287FF08C0FD
:100C90008FE192E0612F9CDD182F893098F526C0F6
:100CA000209138023091390286FF0DC0AFE1B2E0E9
:100CB00080E090E0F901E80FF91FE491ED930196CF
:100CC0001817C1F708C0912FD901EFE1F2E08D911B
:100CD00081939150E1F71150812F90E01F5F0196B1
:100CE000820F931F90933902809338028FE192E034
:100CF000612F8DDD612F6C5F6C3041F08FEF809341
:100D00000B0104C08FEF80930B016EE160930A0129
:100D100094E189B1847131F49150D9F710923B027A
:100D200010923502DF91CF911F910895F894FFCF73
:0C0D3000A12000000000020003005AFF98
:00000001FF
