:1000000069C0A2C182C081C039C17FC07EC07DC02D
:100010007CC07BC07AC019C178C077C0F5C075C0FC
:1000200074C073C072C071C070C06FC06EC06DC04C
:100030006CC06BC00902430002010000FA09040011
:10004000000102020100052400100104240202053F
:10005000240600010524010301070583030800FFAE
:1000600009040100020A000000070501020800005F
:10007000070581020800001201100102000008C0FB
:1000800016E105000101020001120349002F004F93
:10009000002D005200610063006500340377007793
:1000A0000077002E0063006C00750062006400653C
:1000B0000072006F0062006F0074006900630061ED
:1000C000002E0063006F006D002E006100720004BE
:1000D0000309040011241FBECFEFD4E0DEBFCDBF63
:1000E00011E0A0E0B1E0E8E9F9E002C005900D926E
:1000F000AC30B107D9F712E0ACE0B1E001C01D921D
:10010000AC35B107E1F7A7D345C47ACFFC018381B1
:10011000813049F487E790E0909335028093340270
:1001200080917700089584E390E090933502809366
:10013000340283E40895FC012081322F307630327E
:1001400009F014C0FC018181982F9052923080F008
:10015000823239F480910C01811103C082E08093D6
:100160000C0127FD03C081E080930D0180E008951C
:100170008FEF089527E0EEE0F1E0DC0101900D92B1
:100180002A95E1F787E0089527E0FC01AEE0B1E0B1
:1001900001900D922A95E1F781E008952FEF2093C9
:1001A0003602FC0191E228E0680F8191843539F133
:1001B0002CF48A3021F18434C1F405C0843659F01E
:1001C000843799F41CC08091680082608093680035
:1001D0002B9A5B9814C0809168008D7F8093680093
:1001E000209381005B9A2B980AC080911501A82F5B
:1001F000B0E0AA5EBE4F9C938F5F809315016E1393
:10020000D4CF1092360208951F920F920FB60F921C
:1002100011248F93809119028F5F8093190280912E
:100220001902843619F484B58F7C84BD809119023B
:10023000883C29F484B5806184BD109219028F91A5
:100240000F900FBE0F901F9018951F920F920FB630
:100250000F9211248F93EF93FF93D99AE8E6F0E081
:1002600080818260808388E080938100FF91EF919C
:100270008F910F900FBE0F901F9018951F920F92A5
:100280000FB60F9211248F939F93EF93FF9380915A
:1002900068008D7F809368008AE18A95F1F700C03D
:1002A000359902C0369B13C080911501E82FF0E00C
:1002B000EA5EFE4F9CE490838F5F8093150110925D
:1002C0008500109284008DE08093810005C08091AC
:1002D0006800826080936800FF91EF919F918F91F9
:1002E0000F900FBE0F901F9018952B985B9A5F98F8
:1002F00085B5826085BD08952B9A5B9A5F9A85B516
:100300008D7F85BDE8E6F0E080818D7F808388E089
:10031000809381000895A82FB92F80E090E041E0FC
:1003200050EA609530E009C02D9182279795879516
:1003300010F084279527305EC8F36F5FA8F3089507
:10034000EADF8D939D930895CF93CFB7CF93DF933B
:10035000C3954C9BE9F74C9B0BC04C9B09C04C9B35
:1003600007C04C9B05C04C9B03C04C9B01C08EC07A
:100370006F93C0913302DD27C65CDD4F2F9365E597
:100380004C9B03C02F916F91E6CF0F931F934F9318
:1003900020E040E15F9309B1047104FB27F93F932A
:1003A00050E03BE039C0147140642F77012F5F5F4C
:1003B0001EC0406819B114712F7752501FC040649D
:1003C00009B12F770471D1F15F5F00C023C0406293
:1003D00019B12F77147191F15F5F00C025C00471CE
:1003E0001027515012F45D5F0000115027952C3FEB
:1003F00019B1C8F614710127015027952C3FC8F692
:100400004227499309B1047110274F731150279562
:100410002C3FA8F64695469519B1147179F001273D
:10042000015027952C3F98F66B5A60F3315009B173
:10043000B0F600C011E01CBB00271CC03B5031953A
:10044000C31BD04011E01CBB0881033C21F10B34DD
:1004500011F1209131021981110F1213EDCF4A8150
:10046000441F093669F10D3211F0013E29F74F7032
:1004700009F0042F009338023F915F914F911F9133
:100480000F912F916F91CCB3C0FD62CFDF91CF91CF
:10049000CFBFCF91189520913802222369F3109194
:1004A00036021123E9F53430EAF130933602209315
:1004B0003202109133023BE0311B3093330232C0E1
:1004C00000913602013064F50AE54F7049F430912D
:1004D0000A0134FD28C000930A01CAE1D2E027C016
:1004E000433049F03091250234FD1DC000932502B0
:1004F000C6E2D2E01CC03091500234FD14C000931B
:100500005002C1E5D2E013C0052710E000C0000092
:100510000BB91AC0052710E0221F1DC010E021C032
:100520004AE502C032ED432FC4E1D0E032E01AB117
:1005300014615C9A0BB11AB954E120E865E320FF1D
:1005400005270BB9279517951C3FF0F66695B8F768
:10055000B1F720FF05270BB9279517951C3FD0F65B
:100560002795179517FF052700001C3F0BB9B0F61C
:1005700029913A9519F70B7E10913702110FC65148
:10058000D0400BB911F01093310211E01CBB006197
:100590001AB11B7E402F4B7E54E05A95F1F70BB9F0
:1005A0001AB94BB969CF1F93CF93DF93382F792FA7
:1005B000162FEA01888184FF05C0298188E8282751
:1005C000298302C08AE58883CE010296E32FF72FA4
:1005D000DC01312F380F21912D93232F2A1B121666
:1005E000D4F3612FADDE1C5F1883DF91CF911F9193
:1005F000089545E252E0D7CF40E552E0D4CFCF9303
:10060000DF9360913602635067FDADC08091330285
:10061000CCE0D0E0C81BD109C65CDD4F809132022E
:10062000803118F4CE01BADD98C08D3209F086C051
:10063000683009F092C083EC80931A028AE58093B7
:100640000A01109218028881807619F0CE0173DDBC
:1006500062C09A81109223028981811106C0109292
:10066000240223E232E082E052C0853019F49093F4
:1006700037024AC0863081F58B81813019F487E7D3
:1006800090E01FC0823019F4CE0140DD21C08330DC
:10069000F1F4911108C08FEC90E0909335028093B3
:1006A000340284E015C0913041F48BE990E09093DE
:1006B00035028093340284E30BC0923041F489E820
:1006C00090E0909335028093340282E101C080E093
:1006D00090E4909318021FC0883079F0893019F4A3
:1006E0009093390211C08A3059F08B3069F48BE451
:1006F000809326028093510207C029E332E002C0B2
:1007000023E232E081E003C023E232E080E0309374
:100710003502209334028F3F39F4988197FD8E8102
:1007200090E89093180207C09F81911104C09E81A8
:10073000981708F4892F80930B010FC0809118023D
:1007400087FF0BC0CE0120DD8F3F21F48EE1809327
:100750000A0103C0811110920B0180913602181614
:1007600014F41092360280910A0184FF56C08091E1
:100770000B018F3F09F451C0C82F893008F0C8E041
:100780008C1B80930B0180911A0298E88927809333
:100790001A02CC2389F18091180287FF06C06C2FC2
:1007A0008BE192E0E7DCC82F25C0409134025091E4
:1007B000350286FF0BC0FA01ABE1B2E08C2F8A0F45
:1007C00094919D9331968A13FBCF09C0DA01EBE136
:1007D000F2E08C2F8E0F9D9191938E13FCCF2C2FD6
:1007E000215030E02F5F3F4F240F351F30933502EB
:1007F00020933402C93058F46C2F8BE192E0A0DDD5
:10080000CC5FCC3041F08FEF80930B0104C08FEFB1
:1008100080930B01CEE1C0930A0184E199B19471F8
:1008200031F48150D9F71092370210923102DF91E2
:10083000CF910895E9E6F0E0808182608083E89AB4
:100840008BE480932602809351028AE580932502EF
:100850008093500208952EE088E190E00FB6F8945E
:10086000A895809360000FBE209360008BEE8BB93B
:1008700084E18AB9A895EFE5FAEE3197F1F700C067
:1008800000008150B9F780E88AB95F98559A84B51D
:10089000826184BD85B585BD8AE187BD80916E008A
:1008A000836080936E00239A539A87B187B98091B1
:1008B0006C00806380936C00809180008093800046
:1008C0008091810088608093810080916F008260B8
:1008D00080936F0080E49CE9909389008093880066
:1008E0005B9AA8DF10920C0110920D011092160273
:1008F0001092150110921702109219027894A8957F
:100900007EDE8091250284FF2AC0C091150180916E
:100910001702C81305C090910D01911103C01FC0AB
:10092000C81710F0C81B02C0C82FC195C93008F005
:10093000C8E090E06C2F8A5E9E4F5BDE209117022C
:100940002C0F20931702C83031F481E090E03091F1
:100950001501321711F080E090E080930D01809135
:100960000C01882361F29091500294FFC8CF82302D
:1009700031F468E080E091E03FDEBEDC05C062E07B
:1009800088E091E039DEB1DC80910C0181508093E8
:080990000C01B5CFF894FFCF74
:0C099800A12000000000020003005AFF34
:00000001FF
