:1000000069C0E1C382C018C128C165C175C185C17D
:100010008EC19EC1AEC1BEC1D6C1E6C1F6C106C287
:1000200016C226C236C246C256C266C276C286C250
:1000300096C2A6C20902430002010000FA090400A8
:10004000000102020100052400100104240202053F
:10005000240600010524010301070583030800FFAE
:1000600009040100020A000000070501020800005F
:1000700007058102080000040309043403770077B0
:100080000077002E0063006C00750062006400655C
:100090000072006F0062006F00740069006300610D
:1000A000002E0063006F006D002E006100720012D0
:1000B0000349002F004F002D0052006100630065CE
:1000C000001201100102000008C016E10500010144
:1000D0000200010011241FBECFEFD4E0DEBFCDBF70
:1000E00011E0A0E0B1E0E6EEFCE002C005900D9268
:1000F000AC30B107D9F712E0ACE0B1E001C01D921D
:10010000AF35B107E1F763D2ECC57ACF90910F011B
:10011000E1E1F1E0E90FF11D80839F5F90930F0112
:100120000895FC018381813049F481EC90E0909343
:100130003802809337028091C100089584E390E0F3
:10014000909338028093370283E40895FC01808104
:10015000982F9076903299F49181292F2052223055
:1001600080F0923239F490910C01992319F492E0C5
:1001700090930C0187FD07C081E080930D0180E022
:1001800008958FEF089580E00895282F392FD90121
:10019000E5E1F2E087E001900D928150E1F787E020
:1001A0000895E5E1F2E0282F392FD90187E00D907D
:1001B00001928150E1F781E00895EF92FF921F9341
:1001C000DF93CF930F92CDB7DEB77C018FEF809393
:1001D000390218E0F70181917F01843511F18535ED
:1001E0002CF48A30F1F08434C1F405C0843659F01F
:1001F000843799F416C0809168008260809368000B
:100200002B985B9A0EC0809168008D7F8093680068
:10021000109381005B982B9A04C081E2698376DF9A
:1002200069816150B9F6109239020F90CF91DF9138
:100230001F91FF90EF9008951F920F920FB60F92AB
:1002400011248F93809111028061809311028F910C
:100250000F900FBE0F901F9018951F920F920FB620
:100260000F9211242F933F934F935F936F937F933C
:100270008F939F93AF93BF93EF93FF938091680009
:100280008D7F809368008AE18A95F1F700C03599E7
:1002900002C0369B0AC08CE439DF109285001092B0
:1002A00084008DE08093810005C0809168008260A9
:1002B00080936800FF91EF91BF91AF919F918F91D3
:1002C0007F916F915F914F913F912F910F900FBE52
:1002D0000F901F9018951F920F920FB60F92112436
:1002E0008F93809111028064809311028F910F90FF
:1002F0000FBE0F901F9018951F920F920FB60F927E
:1003000011248F93809111028068809311028F9144
:100310000F900FBE0F901F9018951F920F920FB65F
:100320000F9211240F900FBE0F901F9018951F92DF
:100330000F920FB60F9211248F9380911202826058
:10034000809312028F910F900FBE0F901F901895FF
:100350001F920F920FB60F9211248F938091120269
:100360008460809312028F910F900FBE0F901F90A8
:1003700018951F920F920FB60F9211248F938091B0
:1003800012028860809312028F910F900FBE0F901F
:100390001F9018951F920F920FB60F9211248F93F2
:1003A000EF93FF93D99AE8E6F0E080818260808342
:1003B00088E080938100FF91EF918F910F900FBEA5
:1003C0000F901F9018951F920F920FB60F92112445
:1003D0008F93809112028062809312028F910F900E
:1003E0000FBE0F901F9018951F920F920FB60F928D
:1003F00011248F93809112028064809312028F9156
:100400000F900FBE0F901F9018951F920F920FB66E
:100410000F9211248F9380911202806880931202B0
:100420008F910F900FBE0F901F9018951F920F92F3
:100430000FB60F9211248F938091130281608093E5
:1004400013028F910F900FBE0F901F9018951F925F
:100450000F920FB60F9211248F9380911302826036
:10046000809313028F910F900FBE0F901F901895DD
:100470001F920F920FB60F9211248F938091130247
:100480008460809313028F910F900FBE0F901F9086
:1004900018951F920F920FB60F9211248F9380918F
:1004A00013028860809313028F910F900FBE0F90FC
:1004B0001F9018951F920F920FB60F9211248F93D1
:1004C000809113028061809313028F910F900FBE71
:1004D0000F901F9018951F920F920FB60F92112434
:1004E0008F93809113028062809313028F910F90FB
:1004F0000FBE0F901F9018951F920F920FB60F927C
:1005000011248F93809113028064809313028F9142
:100510000F900FBE0F901F9018951F920F920FB65D
:100520000F9211248F93809113028068809313029D
:100530008F910F900FBE0F901F9018951F920F92E2
:100540000FB60F9211248F938091140281608093D3
:1005500014028F910F900FBE0F901F9018951F924D
:100560000F920FB60F9211248F9380911402826024
:10057000809314028F910F900FBE0F901F901895CB
:100580001F920F920FB60F9211248F938091140235
:100590008460809314028F910F900FBE0F901F9074
:1005A00018952B9A5B9885B5826085BD5F9A0895F2
:1005B0002B985B9885B58D7F85BD5F98E8E6F0E068
:1005C00080818D7F808388E08093810008951F93D0
:1005D000CF93DF932EE088E190E00FB6F894A895D2
:1005E000809360000FBE209360008BEE8BB984E196
:1005F0008AB9A895EFE5FAEE3197F1F700C000004F
:100600008150B9F780E88AB95F98559A84B58363B9
:1006100084BD85B5886085BD84E387BD8AE188BDDA
:10062000239A539A87B187B980916C008063809335
:100630006C008091800080938000809181008860B0
:100640008093810080916F00826080936F0080E4CE
:100650009CE990938900809388005B9831D3109235
:100660000C0110920D0110920E0110920F011092C8
:1006700010017894C1E0D0E0A895FED180912802C5
:1006800084FF2AC010910F0180911001181729F4DE
:1006900090910D01992319F41FC0181710F0181B21
:1006A00002C0182F1195193008F018E090E08F5E05
:1006B0009E4F612FD9D120911001210F209310015D
:1006C000183031F481E090E030910F01321711F0D1
:1006D00080E090E080930D0114E0912F969596951F
:1006E0009695E92FF0E0EF5EFD4F8081882331F48D
:1006F000192F110F110F110F195F2CC0212F30E08E
:1007000027703070482F50E0022E02C05595479553
:100710000A94E2F740FF1EC0AE0102C0440F551F0D
:100720002A95E2F79A012095282320838CE5EEDCB8
:10073000812F82958F708A3008F0895F805DE6DCBA
:10074000812F8F708A3008F0895F805DDFDC8AE05E
:10075000DDDC04C01F5F1B3108F4BFCF80910C01AA
:10076000882309F489CF9091530294FF85CF82307A
:1007700031F480E091E068E07BD11ADF05C088E0C9
:1007800091E062E075D10DDF80910C018150809382
:100790000C0172CFA82FB92F80E090E041E050EA21
:1007A000609530E009C02D9182279795879510F0CC
:1007B00084279527305EC8F36F5FA8F30895EADFBA
:1007C0008D939D930895CF93CFB7CF93DF93C39528
:1007D0004C9BE9F74C9B0BC04C9B09C04C9B07C042
:1007E0004C9B05C04C9B03C04C9B01C08EC06F93BB
:1007F000C0913602DD27C35CDD4F2F9365E54C9B2E
:1008000003C02F916F91E6CF0F931F934F9320E07A
:1008100040E15F9309B1047104FB27F93F9350E075
:100820003BE039C0147140642F77012F5F5F1EC019
:10083000406819B114712F7752501FC0406409B13C
:100840002F770471D1F15F5F00C023C0406219B1FE
:100850002F77147191F15F5F00C025C004711027DC
:10086000515012F45D5F0000115027952C3F19B1D3
:10087000C8F614710127015027952C3FC8F642276E
:10088000499309B1047110274F73115027952C3FDC
:10089000A8F64695469519B1147179F001270150D3
:1008A00027952C3F98F66B5A60F3315009B1B0F69A
:1008B00000C011E01CBB00271CC03B503195C31B7E
:1008C000D04011E01CBB0881033C21F10B3411F135
:1008D000209134021981110F1213EDCF4A81441F68
:1008E000093669F10D3211F0013E29F74F7009F018
:1008F000042F00933B023F915F914F911F910F9105
:100900002F916F91CCB3C0FD62CFDF91CF91CFBF5C
:10091000CF91189520913B02222369F3109139025F
:100920001123E9F53430EAF130933902209335028E
:10093000109136023BE0311B3093360232C00091F9
:100940003902013064F50AE54F7049F430910A012B
:1009500034FD28C000930A01CDE1D2E027C0433026
:1009600049F03091280234FD1DC000932802C9E2ED
:10097000D2E01CC03091530234FD14C000935302E6
:10098000C4E5D2E013C0052710E000C000000BB999
:100990001AC0052710E0221F1DC010E021C04AE543
:1009A00002C032ED432FC4E1D0E032E01AB114614D
:1009B0005C9A0BB11AB954E120E865E320FF0527E2
:1009C0000BB9279517951C3FF0F66695B8F7B1F768
:1009D00020FF05270BB9279517951C3FD0F62795C3
:1009E000179517FF052700001C3F0BB9B0F629919A
:1009F0003A9519F70B7E10913A02110FC651D0406B
:100A00000BB911F01093340211E01CBB00611AB154
:100A10001B7E402F4B7E54E05A95F1F70BB91AB963
:100A20004BB969CF1F93CF93DF939C01162FEA0137
:100A3000888184FF05C0898198E88927898302C05D
:100A40008AE58883CE010296412FD901FC012D91C0
:100A5000219341501416DCF3612FB1DE1C5F188323
:100A6000DF91CF911F91089548E252E0DBDF0895B6
:100A700043E552E0D7DF08951F93CF93DF93609152
:100A80003902635067FDAFC080913602CCE0D0E000
:100A9000C81BD109C35CDD4F80913502803118F449
:100AA000CE018BDB9AC08D3209F087C0683009F027
:100AB00094C083EC80931D028AE580930A01109212
:100AC0001C028881807619F0CE0140DB63C09A81D8
:100AD000109226028981882331F41092270226E29F
:100AE00032E082E052C0853019F490933A024AC055
:100AF000863081F58B81813019F481EC90E01FC044
:100B0000823019F4CE010DDB21C08330F1F499233A
:100B100041F487E790E0909338028093370284E0B5
:100B200015C0913041F48BE790E0909338028093A8
:100B3000370284E30BC0923041F48FEA90E0909347
:100B400038028093370282E101C080E090E4909304
:100B50001C0220C0883079F0893019F490933C024F
:100B600011C08A3059F08B3069F48BE480932902EC
:100B70008093540207C02CE332E002C026E232E048
:100B800081E003C026E232E080E030933802209317
:100B9000370209C08F3F39F4988197FD8E8190E824
:100BA00090931C0207C09F81992321F49E8198177E
:100BB00008F4892F80930B0110C080911C0287FFDD
:100BC0000CC0CE01EEDA8F3F21F48EE180930A0152
:100BD00004C0882311F010920B018091390218167D
:100BE00014F41092390280910A0184FF5BC0809155
:100BF0000B018F3F09F456C0182F893008F018E018
:100C0000811B80930B0180911D0298E889278093B6
:100C10001D021123B1F180911C0287FF08C08EE1F3
:100C200092E0612FB2DA182F8930B0F52AC02091F6
:100C3000370230913802412F415086FF0EC050E0FC
:100C4000EA01C15EDD4FF901AEE1B2E084918D931E
:100C50003196AC17BD07D1F70CC0D90150E0CA01DD
:100C6000815E9D4FEEE1F2E06D916193E817F90727
:100C7000D9F74F5F5F4F420F531F50933802409395
:100C800037028EE192E0612F9ADD1C5F1C3041F04B
:100C90008FEF80930B0104C08FEF80930B011EE157
:100CA00010930A0184E199B1947131F48150D9F71C
:100CB00010923A0210923402DF91CF911F91089561
:100CC000E9E6F0E0808182608083E89A8BE480939B
:100CD0002902809354028AE580932802809353026C
:060CE0000895F894FFCF17
:0C0CE600A12000000000020003005AFFE3
:00000001FF
