:2000000069C04AC382C014C128C165C179C18DC196C1AAC1BEC1D2C1EAC1FEC112C226C202
:200020003AC24EC262C276C28AC29EC2B2C2C6C2DAC2EEC2090243000201000032090400D4
:2000400000010202010005240010010424020205240600010524010301070583030800FF3D
:2000600009040100020A00000007050102080000070581020800001201100102000008C0CA
:2000800016E105000101020001120349002F004F002D0052006100630065003403770077B6
:2000A0000077002E0063006C00750062006400650072006F0062006F0074006900630061D9
:2000C000002E0063006F006D002E0061007200040309040011241FBECFEFD4E0DEBFCDBFF1
:2000E00011E0A0E0B1E0E4E7FDE002C005900D92AC30B107D9F712E0ACE0B1E001C01D927D
:20010000AF35B107E1F75BD533C67ACF90911501E92FF0E0EA5EFE4F80839F5F909315010B
:200120000895FC018381813049F487E790E0909338028093370280917700089584E390E0B0
:20014000909338028093370283E40895FC012081322F3076303209F014C0FC018181982F58
:200160009052923080F0823239F480910C01811103C082E080930C0127FD03C081E080933A
:200180000D0180E008958FEF089527E0EEE0F1E0DC0101900D922A95E1F787E0089527E0E4
:2001A000FC01AEE0B1E001900D922A95E1F781E00895EF92FF921F93CF93DF931F92CDB791
:2001C000DEB72FEF209339027C0118E0680FF70181917F01843509F12CF48A30F1F08434E2
:2001E000C1F405C0843659F0843799F416C0809168008260809368002B985B9A0EC08091F7
:2002000068008D7F80936800109381005B982B9A04C081E269837ADF69816E11D8CF1092F5
:2002200039020F90DF91CF911F91FF90EF9008951F920F920FB60F9211248F93EF93FF9396
:20024000E6E1F2E0808180618083FF91EF918F910F900FBE0F901F9018951F920F920FB672
:200260000F9211242F933F934F935F936F937F938F939F93AF93BF93EF93FF9380916800B7
:200280008D7F809368008AE18A95F1F700C0359902C0369B0AC08CE439DF10928500109229
:2002A00084008DE08093810005C080916800826080936800FF91EF91BF91AF919F918F912E
:2002C0007F916F915F914F913F912F910F900FBE0F901F9018951F920F920FB60F9211245A
:2002E0008F93EF93FF93E6E1F2E0808180648083FF91EF918F910F900FBE0F901F901895B0
:200300001F920F920FB60F9211248F93EF93FF93E6E1F2E0808180688083FF91EF918F9105
:200320000F900FBE0F901F9018951F920F920FB60F9211240F900FBE0F901F9018951F9251
:200340000F920FB60F9211248F93EF93FF93E7E1F2E0808182608083FF91EF918F910F90DC
:200360000FBE0F901F9018951F920F920FB60F9211248F93EF93FF93E7E1F2E08081846013
:200380008083FF91EF918F910F900FBE0F901F9018951F920F920FB60F9211248F93EF9332
:2003A000FF93E7E1F2E0808188608083FF91EF918F910F900FBE0F901F9018951F920F923C
:2003C0000FB60F9211248F93EF93FF93D99AE8E6F0E080818260808388E080938100FF91C9
:2003E000EF918F910F900FBE0F901F9018951F920F920FB60F9211248F93EF93FF93E7E10B
:20040000F2E0808180628083FF91EF918F910F900FBE0F901F9018951F920F920FB60F92D5
:2004200011248F93EF93FF93E7E1F2E0808180648083FF91EF918F910F900FBE0F901F90E5
:2004400018951F920F920FB60F9211248F93EF93FF93E7E1F2E0808180688083FF91EF9136
:200460008F910F900FBE0F901F9018951F920F920FB60F9211248F93EF93FF93E8E1F2E037
:20048000808181608083FF91EF918F910F900FBE0F901F9018951F920F920FB60F921124F3
:2004A0008F93EF93FF93E8E1F2E0808182608083FF91EF918F910F900FBE0F901F901895EE
:2004C0001F920F920FB60F9211248F93EF93FF93E8E1F2E0808184608083FF91EF918F9146
:2004E0000F900FBE0F901F9018951F920F920FB60F9211248F93EF93FF93E8E1F2E08081D6
:2005000088608083FF91EF918F910F900FBE0F901F9018951F920F920FB60F9211248F934A
:20052000EF93FF93E8E1F2E0808180618083FF91EF918F910F900FBE0F901F9018951F92DF
:200540000F920FB60F9211248F93EF93FF93E8E1F2E0808180628083FF91EF918F910F90D9
:200560000FBE0F901F9018951F920F920FB60F9211248F93EF93FF93E8E1F2E08081806410
:200580008083FF91EF918F910F900FBE0F901F9018951F920F920FB60F9211248F93EF9330
:2005A000FF93E8E1F2E0808180688083FF91EF918F910F900FBE0F901F9018951F920F9239
:2005C0000FB60F9211248F93EF93FF93E9E1F2E0808181608083FF91EF918F910F900FBE2D
:2005E0000F901F9018951F920F920FB60F9211248F93EF93FF93E9E1F2E08081826080835B
:20060000FF91EF918F910F900FBE0F901F9018951F920F920FB60F9211248F93EF93FF9320
:20062000E9E1F2E0808184608083FF91EF918F910F900FBE0F901F9018952B9A5B9885B5AD
:20064000826085BD5F9A08952B985B9885B58D7F85BD5F98E8E6F0E080818D7F808388E095
:20066000809381000895A82FB92F80E090E041E050EA609530E009C02D91822797958795E2
:2006800010F084279527305EC8F36F5FA8F30895EADF8D939D930895CF93CFB7CF93DF9332
:2006A000C3954C9BE9F74C9B0BC04C9B09C04C9B07C04C9B05C04C9B03C04C9B01C08EC0BF
:2006C0006F93C0913602DD27C35CDD4F2F9365E54C9B03C02F916F91E6CF0F931F934F93DF
:2006E00020E040E15F9309B1047104FB27F93F9350E03BE039C0147140642F77012F5F5FC6
:200700001EC0406819B114712F7752501FC0406409B12F770471D1F15F5F00C023C040629F
:2007200019B12F77147191F15F5F00C025C004711027515012F45D5F0000115027952C3F48
:2007400019B1C8F614710127015027952C3FC8F64227499309B1047110274F7311502795A4
:200760002C3FA8F64695469519B1147179F00127015027952C3F98F66B5A60F3315009B181
:20078000B0F600C011E01CBB00271CC03B503195C31BD04011E01CBB0881033C21F10B3408
:2007A00011F1209134021981110F1213EDCF4A81441F093669F10D3211F0013E29F74F7090
:2007C00009F0042F00933B023F915F914F911F910F912F916F91CCB3C0FD62CFDF91CF9130
:2007E000CFBFCF91189520913B02222369F3109139021123E9F53430EAF1309339022093F1
:200800003502109136023BE0311B3093360232C000913902013064F50AE54F7049F4309172
:200820000A0134FD28C000930A01CDE1D2E027C0433049F03091280234FD1DC0009328024D
:20084000C9E2D2E01CC03091530234FD14C000935302C4E5D2E013C0052710E000C0000052
:200860000BB91AC0052710E0221F1DC010E021C04AE502C032ED432FC4E1D0E032E01AB11B
:2008800014615C9A0BB11AB954E120E865E320FF05270BB9279517951C3FF0F66695B8F777
:2008A000B1F720FF05270BB9279517951C3FD0F62795179517FF052700001C3F0BB9B0F689
:2008C00029913A9519F70B7E10913A02110FC651D0400BB911F01093340211E01CBB00610B
:2008E0001AB11B7E402F4B7E54E05A95F1F70BB91AB94BB969CFEF92FF92CF93382F792FFB
:20090000C62F7A01FA01808184FF05C0218188E82827218303C08AE5FA018083C70102968E
:20092000E32FF72FDC013C2F380F21912D93232F2A1B1216D4F36C2FABDECC5FF701C0836E
:20094000CF91FF90EF90089548E252E0D4CF43E552E0D1CFEF92FF92CF9360913902635040
:2009600067FDB4C0809136029CE0E92EF12CE81AF1088DE392E0E80EF91E809135028031C3
:2009800018F4C70116DC9CC08D3209F08AC0683009F096C083EC80931D028AE580930A011E
:2009A00010921C02F7018081807619F0C701CEDB64C0F7019281109226028181811106C0BB
:2009C0001092270226E232E082E053C0853019F490933A024BC0863089F5F70183818130B0
:2009E00019F487E790E01FC0823019F4C70199DB21C08330F1F4911108C08FEC90E0909341
:200A000038028093370284E015C0913041F48BE990E0909338028093370284E30BC09230A0
:200A200041F489E890E0909338028093370282E101C080E090E490931C021FC0883079F0BE
:200A4000893019F490933C0211C08A3059F08B3069F48BE4809329028093540207C02CE397
:200A600032E002C026E232E081E003C026E232E080E03093380220933702F7018F3F39F40E
:200A8000908197FD868190E890931C0207C09781911104C09681981708F4892F80930B0113
:200AA0000FC080911C0287FF0BC0C70178DB8F3F21F48EE180930A0103C0811110920B0159
:200AC00080913902181614F41092390280910A0184FF56C080910B018F3F09F451C0C82F12
:200AE000893008F0C8E08C1B80930B0180911D0298E8892780931D02CC2389F180911C02AD
:200B000087FF06C06C2F8EE192E03FDBC82F25C0409137025091380286FF0BC0FA01AEE118
:200B2000B2E08C2F8A0F94919D9331968A13FBCF09C0DA01EEE1F2E08C2F8E0F9D9191935D
:200B40008E13FCCF2C2F215030E02F5F3F4F240F351F3093380220933702C93058F46C2FE1
:200B60008EE192E095DDCC5FCC3041F08FEF80930B0104C08FEF80930B01CEE1C0930A01BF
:200B800084E199B1947131F48150D9F710923A0210923402CF91FF90EF900895E9E6F0E07B
:200BA000808182608083E89A8BE480932902809354028AE5809328028093530208952EE0F8
:200BC00088E190E00FB6F894A895809360000FBE209360008BEE8BB984E18AB9A895EFE5E5
:200BE000FAEE3197F1F700C000008150B9F780E88AB95F98559A84B5836384BD85B5886009
:200C000085BD84E387BD8AE188BD239A539A87B187B980916C00806380936C0080918000A5
:200C2000809380008091810088608093810080916F00826080936F0080E49CE9909389009A
:200C4000809388005B98AADF10920C0110920D0110921A021092150110921B027894EE24CB
:200C6000E394F12CA89576DE8091280284FF2AC0C091150180911B02C81305C090910D0143
:200C8000911103C01FC0C81710F0C81B02C0C82FC195C93008F0C8E090E06C2F8A5E9E4FC6
:200CA00053DE20911B022C0F20931B02C83031F481E090E030911501321711F080E090E04B
:200CC00080930D01C4E09C2F969596959695E92FF0E0EA5EFD4F8081811106C0C92FCC0F5B
:200CE000CC0FCC0FC95F25C09C2F9770282F30E0092E02C0359527950A94E2F720FF19C00A
:200D0000970101C0220F9A95EAF72095282320838CE5FCD98C2F82958F70805DF7D98C2F17
:200D20008F708A3008F0895F805DF0D98AE0EED903C0CF5FCB3138F280910C01882309F466
:200D400091CF9091530294FF8DCF823031F468E080E091E0FCDD78DC05C062E088E091E0D1
:200D6000F6DD6BDC80910C01815080930C017ACFF894FFCFA12000000000020003005AFF88
:00000001FF
